{
    "contractName": "CDE",
    "abi": [
        {
            "inputs": [],
            "payable": false,
            "stateMutability": "nonpayable",
            "type": "constructor"
        },
        {
            "constant": true,
            "inputs": [
                {
                    "internalType": "bytes32",
                    "name": "",
                    "type": "bytes32"
                }
            ],
            "name": "all_files",
            "outputs": [
                {
                    "internalType": "bytes32",
                    "name": "name",
                    "type": "bytes32"
                },
                {
                    "internalType": "uint256",
                    "name": "version",
                    "type": "uint256"
                },
                {
                    "internalType": "string",
                    "name": "url",
                    "type": "string"
                },
                {
                    "internalType": "address",
                    "name": "author",
                    "type": "address"
                },
                {
                    "internalType": "uint256",
                    "name": "timestamp",
                    "type": "uint256"
                },
                {
                    "internalType": "bytes32",
                    "name": "next",
                    "type": "bytes32"
                },
                {
                    "internalType": "uint16",
                    "name": "index",
                    "type": "uint16"
                }
            ],
            "payable": false,
            "stateMutability": "view",
            "type": "function"
        },
        {
            "constant": true,
            "inputs": [],
            "name": "fileCount",
            "outputs": [
                {
                    "internalType": "uint16",
                    "name": "",
                    "type": "uint16"
                }
            ],
            "payable": false,
            "stateMutability": "view",
            "type": "function"
        },
        {
            "constant": true,
            "inputs": [
                {
                    "internalType": "bytes32",
                    "name": "",
                    "type": "bytes32"
                }
            ],
            "name": "file_by_name",
            "outputs": [
                {
                    "internalType": "bytes32",
                    "name": "",
                    "type": "bytes32"
                }
            ],
            "payable": false,
            "stateMutability": "view",
            "type": "function"
        },
        {
            "constant": true,
            "inputs": [
                {
                    "internalType": "uint16",
                    "name": "",
                    "type": "uint16"
                }
            ],
            "name": "heads",
            "outputs": [
                {
                    "internalType": "bytes32",
                    "name": "",
                    "type": "bytes32"
                }
            ],
            "payable": false,
            "stateMutability": "view",
            "type": "function"
        },
        {
            "constant": false,
            "inputs": [
                {
                    "internalType": "bytes32",
                    "name": "_name",
                    "type": "bytes32"
                },
                {
                    "internalType": "string",
                    "name": "_url",
                    "type": "string"
                }
            ],
            "name": "registerFile",
            "outputs": [],
            "payable": false,
            "stateMutability": "nonpayable",
            "type": "function"
        },
        {
            "constant": true,
            "inputs": [
                {
                    "internalType": "bytes32",
                    "name": "name",
                    "type": "bytes32"
                }
            ],
            "name": "getFileByName",
            "outputs": [
                {
                    "internalType": "uint256",
                    "name": "",
                    "type": "uint256"
                },
                {
                    "internalType": "string",
                    "name": "",
                    "type": "string"
                },
                {
                    "internalType": "address",
                    "name": "",
                    "type": "address"
                },
                {
                    "internalType": "uint256",
                    "name": "",
                    "type": "uint256"
                }
            ],
            "payable": false,
            "stateMutability": "view",
            "type": "function"
        },
        {
            "constant": true,
            "inputs": [],
            "name": "getAllFilesRecent",
            "outputs": [
                {
                    "components": [
                        {
                            "internalType": "bytes32",
                            "name": "name",
                            "type": "bytes32"
                        },
                        {
                            "internalType": "uint256",
                            "name": "version",
                            "type": "uint256"
                        },
                        {
                            "internalType": "string",
                            "name": "url",
                            "type": "string"
                        },
                        {
                            "internalType": "address",
                            "name": "author",
                            "type": "address"
                        },
                        {
                            "internalType": "uint256",
                            "name": "timestamp",
                            "type": "uint256"
                        },
                        {
                            "internalType": "bytes32",
                            "name": "next",
                            "type": "bytes32"
                        },
                        {
                            "internalType": "uint16",
                            "name": "index",
                            "type": "uint16"
                        }
                    ],
                    "internalType": "struct CDE.File[]",
                    "name": "",
                    "type": "tuple[]"
                }
            ],
            "payable": false,
            "stateMutability": "view",
            "type": "function"
        }
    ],
    "bytecode": "0x60806040526000600260006101000a81548161ffff021916908361ffff16021790555034801561002e57600080fd5b506112b78061003e6000396000f3fe608060405234801561001057600080fd5b506004361061007d5760003560e01c80637a16bf471161005b5780637a16bf471461010057806388c40d011461011e578063b9044a111461013a578063bcab15291461016d5761007d565b806308815a2f1461008257806343953519146100b2578063770a8a07146100d0575b600080fd5b61009c60048036036100979190810190610b9f565b6101a3565b6040516100a99190610f89565b60405180910390f35b6100ba6101bb565b6040516100c7919061105a565b60405180910390f35b6100ea60048036036100e59190810190610c1c565b6101cf565b6040516100f79190610f89565b60405180910390f35b6101086101e7565b6040516101159190610f67565b60405180910390f35b61013860048036036101339190810190610bc8565b61040a565b005b610154600480360361014f9190810190610b9f565b610712565b6040516101649493929190611075565b60405180910390f35b61018760048036036101829190810190610b9f565b6108ba565b60405161019a9796959493929190610fa4565b60405180910390f35b60006020528060005260406000206000915090505481565b600260009054906101000a900461ffff1681565b60016020528060005260406000206000915090505481565b606080600260009054906101000a900461ffff1661ffff1660405190808252806020026020018201604052801561023857816020015b6102256109c2565b81526020019060019003908161021d5790505b50905060008090505b600260009054906101000a900461ffff1661ffff168161ffff1610156104025760036000600160008461ffff1661ffff1681526020019081526020016000205481526020019081526020016000206040518060e00160405290816000820154815260200160018201548152602001600282018054600181600116156101000203166002900480601f0160208091040260200160405190810160405280929190818152602001828054600181600116156101000203166002900480156103475780601f1061031c57610100808354040283529160200191610347565b820191906000526020600020905b81548152906001019060200180831161032a57829003601f168201915b505050505081526020016003820160009054906101000a900473ffffffffffffffffffffffffffffffffffffffff1673ffffffffffffffffffffffffffffffffffffffff1673ffffffffffffffffffffffffffffffffffffffff16815260200160048201548152602001600582015481526020016006820160009054906101000a900461ffff1661ffff1661ffff1681525050828261ffff16815181106103ea57fe5b60200260200101819052508080600101915050610241565b508091505090565b6000801b821161044f576040517f08c379a00000000000000000000000000000000000000000000000000000000081526004016104469061101a565b60405180910390fd5b600073ffffffffffffffffffffffffffffffffffffffff163373ffffffffffffffffffffffffffffffffffffffff1614156104bf576040517f08c379a00000000000000000000000000000000000000000000000000000000081526004016104b69061103a565b60405180910390fd5b60008060008481526020019081526020016000205490506000600190506000600260009054906101000a900461ffff1690506000801b831461053f57600160036000858152602001908152602001600020600101540191506003600084815260200190815260200160002060060160009054906101000a900461ffff1690505b610547610a1f565b6040518060e001604052808781526020018481526020018681526020013373ffffffffffffffffffffffffffffffffffffffff1681526020014281526020018581526020018361ffff1681525090506000816000015182602001516040516020016105b3929190610f3b565b60405160208183030381529060405280519060200120905081600360008381526020019081526020016000206000820151816000015560208201518160010155604082015181600201908051906020019061060f929190610a7c565b5060608201518160030160006101000a81548173ffffffffffffffffffffffffffffffffffffffff021916908373ffffffffffffffffffffffffffffffffffffffff1602179055506080820151816004015560a0820151816005015560c08201518160060160006101000a81548161ffff021916908361ffff160217905550905050806000808981526020019081526020016000208190555080600160008561ffff1661ffff168152602001908152602001600020819055506000801b851415610709576002600081819054906101000a900461ffff168092919060010191906101000a81548161ffff021916908361ffff160217905550505b50505050505050565b60006060600080610721610a1f565b600360008060008981526020019081526020016000205481526020019081526020016000206040518060e00160405290816000820154815260200160018201548152602001600282018054600181600116156101000203166002900480601f0160208091040260200160405190810160405280929190818152602001828054600181600116156101000203166002900480156107fe5780601f106107d3576101008083540402835291602001916107fe565b820191906000526020600020905b8154815290600101906020018083116107e157829003601f168201915b505050505081526020016003820160009054906101000a900473ffffffffffffffffffffffffffffffffffffffff1673ffffffffffffffffffffffffffffffffffffffff1673ffffffffffffffffffffffffffffffffffffffff16815260200160048201548152602001600582015481526020016006820160009054906101000a900461ffff1661ffff1661ffff1681525050905080602001518160400151826060015183608001518292509450945094509450509193509193565b6003602052806000526040600020600091509050806000015490806001015490806002018054600181600116156101000203166002900480601f0160208091040260200160405190810160405280929190818152602001828054600181600116156101000203166002900480156109725780601f1061094757610100808354040283529160200191610972565b820191906000526020600020905b81548152906001019060200180831161095557829003601f168201915b5050505050908060030160009054906101000a900473ffffffffffffffffffffffffffffffffffffffff16908060040154908060050154908060060160009054906101000a900461ffff16905087565b6040518060e00160405280600080191681526020016000815260200160608152602001600073ffffffffffffffffffffffffffffffffffffffff1681526020016000815260200160008019168152602001600061ffff1681525090565b6040518060e00160405280600080191681526020016000815260200160608152602001600073ffffffffffffffffffffffffffffffffffffffff1681526020016000815260200160008019168152602001600061ffff1681525090565b828054600181600116156101000203166002900490600052602060002090601f016020900481019282601f10610abd57805160ff1916838001178555610aeb565b82800160010185558215610aeb579182015b82811115610aea578251825591602001919060010190610acf565b5b509050610af89190610afc565b5090565b610b1e91905b80821115610b1a576000816000905550600101610b02565b5090565b90565b600081359050610b3081611246565b92915050565b600082601f830112610b4757600080fd5b8135610b5a610b55826110ee565b6110c1565b91508082526020830160208301858383011115610b7657600080fd5b610b818382846111df565b50505092915050565b600081359050610b998161125d565b92915050565b600060208284031215610bb157600080fd5b6000610bbf84828501610b21565b91505092915050565b60008060408385031215610bdb57600080fd5b6000610be985828601610b21565b925050602083013567ffffffffffffffff811115610c0657600080fd5b610c1285828601610b36565b9150509250929050565b600060208284031215610c2e57600080fd5b6000610c3c84828501610b8a565b91505092915050565b6000610c518383610e4c565b905092915050565b610c628161118b565b82525050565b610c718161118b565b82525050565b6000610c828261112a565b610c8c8185611158565b935083602082028501610c9e8561111a565b8060005b85811015610cda5784840389528151610cbb8582610c45565b9450610cc68361114b565b925060208a01995050600181019050610ca2565b50829750879550505050505092915050565b610cf58161119d565b82525050565b610d048161119d565b82525050565b610d1b610d168261119d565b611221565b82525050565b6000610d2c82611140565b610d36818561117a565b9350610d468185602086016111ee565b610d4f81611235565b840191505092915050565b6000610d6582611135565b610d6f8185611169565b9350610d7f8185602086016111ee565b610d8881611235565b840191505092915050565b6000610d9e82611135565b610da8818561117a565b9350610db88185602086016111ee565b610dc181611235565b840191505092915050565b6000610dd9600e8361117a565b91507f6e616d65206e6f742076616c69640000000000000000000000000000000000006000830152602082019050919050565b6000610e19601a8361117a565b91507f75706c6f616465722061646472657373206e6f742076616c69640000000000006000830152602082019050919050565b600060e083016000830151610e646000860182610cec565b506020830151610e776020860182610f06565b5060408301518482036040860152610e8f8282610d5a565b9150506060830151610ea46060860182610c59565b506080830151610eb76080860182610f06565b5060a0830151610eca60a0860182610cec565b5060c0830151610edd60c0860182610ee8565b508091505092915050565b610ef1816111a7565b82525050565b610f00816111a7565b82525050565b610f0f816111d5565b82525050565b610f1e816111d5565b82525050565b610f35610f30826111d5565b61122b565b82525050565b6000610f478285610d0a565b602082019150610f578284610f24565b6020820191508190509392505050565b60006020820190508181036000830152610f818184610c77565b905092915050565b6000602082019050610f9e6000830184610cfb565b92915050565b600060e082019050610fb9600083018a610cfb565b610fc66020830189610f15565b8181036040830152610fd88188610d93565b9050610fe76060830187610c68565b610ff46080830186610f15565b61100160a0830185610cfb565b61100e60c0830184610ef7565b98975050505050505050565b6000602082019050818103600083015261103381610dcc565b9050919050565b6000602082019050818103600083015261105381610e0c565b9050919050565b600060208201905061106f6000830184610ef7565b92915050565b600060808201905061108a6000830187610f15565b818103602083015261109c8186610d21565b90506110ab6040830185610c68565b6110b86060830184610f15565b95945050505050565b6000604051905081810181811067ffffffffffffffff821117156110e457600080fd5b8060405250919050565b600067ffffffffffffffff82111561110557600080fd5b601f19601f8301169050602081019050919050565b6000819050602082019050919050565b600081519050919050565b600081519050919050565b600081519050919050565b6000602082019050919050565b600082825260208201905092915050565b600082825260208201905092915050565b600082825260208201905092915050565b6000611196826111b5565b9050919050565b6000819050919050565b600061ffff82169050919050565b600073ffffffffffffffffffffffffffffffffffffffff82169050919050565b6000819050919050565b82818337600083830152505050565b60005b8381101561120c5780820151818401526020810190506111f1565b8381111561121b576000848401525b50505050565b6000819050919050565b6000819050919050565b6000601f19601f8301169050919050565b61124f8161119d565b811461125a57600080fd5b50565b611266816111a7565b811461127157600080fd5b5056fea365627a7a72315820ea85ca58260b8d84bd39bc23662252f5a2e385a9a4d1e71697e568cf9a6ea41c6c6578706572696d656e74616cf564736f6c63430005100040",
    "source": "// SPDX-License-Identifier: MIT\npragma solidity >=0.4.22 <0.8.20;\npragma experimental ABIEncoderV2;\n\ncontract CDE {\n  /** files = list Files. Each file is the head of a linked list of all its previous versions.\n                Indexed by the hash of the name, value is the id of the head\n    e.g.    5689 -> file1_v2 --> file1_v1\n            3674 -> file2_v3 --> file2_v2 --> file2_v1\n   */\n  mapping(bytes32 => bytes32) public file_by_name;    \n  \n  /** heads = list of all heads of linked lists. Indexed by a progressive integer id\n    e.g.    001 -> 5689\n            002 -> 3674\n      */\n  mapping(uint16 => bytes32) public heads;\n  uint16 public fileCount = 0; // number of heads\n\n  /** allFileVersions = mapping of all versions of all files. Indexed by id\n    e.g.    25    -> file1_v1\n            52745 -> file1_v2\n            42577 -> file2_v1\n            52475 -> file2_v2\n      */\n  mapping(bytes32 => File) public all_files; \n  File f;\n\n  struct File {\n    bytes32 name; // name is hashed to save gas (it can immediately be used as index)\n    uint version;\n    string url;\n    address author;\n    uint timestamp;\n    bytes32 next;\n    uint16 index;\n  }\n\n  constructor() public {\n  }\n\n  function registerFile(\n    bytes32 _name,\n    string memory _url\n  ) public{\n    // Make sure file name exists\n    require(_name > 0, \"name not valid\");\n    // Make sure uploader address exists\n    require(msg.sender != address(0), \"uploader address not valid\");\n\n    // check if there is a previous version\n    bytes32 oldAlias = file_by_name[_name];\n    uint version = 1;\n    uint16 index = fileCount;\n    if (oldAlias != 0x0) { // there is already a file with the same name\n      version = all_files[oldAlias].version + 1;\n      index = all_files[oldAlias].index;\n    }\n\n    File memory file = File(_name, version, _url, msg.sender, block.timestamp, oldAlias, index);\n\n    // Add file to general list\n    bytes32 id = keccak256(abi.encodePacked(file.name, file.version));\n    all_files[id] = file;\n\n    // Add file to linked list and head list\n    file_by_name[_name] = id;\n    heads[index] = id;\n    if (oldAlias == 0x0) \n      fileCount++; // increase counter only if it is a new head\n  }\n\n  function getFileByName(bytes32 name)\n    public\n    view\n    returns (\n      uint,\n      string memory,\n      address,\n      uint  \n    )\n  {\n    File memory file = all_files[file_by_name[name]];\n    return (file.version, file.url, file.author, file.timestamp);\n  }\n\n  function getAllFilesRecent() public view returns(File[] memory){\n    File[] memory rv = new File[](fileCount);\n    for (uint16 i=0; i < fileCount; i++){\n      rv[i] = all_files[heads[i]];\n    }\n    return rv;\n  }\n\n\n  // function to interact with OpenSea\n  /* TODO restore?\n  function tokenURI(uint256 _tokenId) public view returns (string memory) {\n    int index = int(_tokenId);\n    return files[index].url;\n  }\n  */\n}\n",
    "sourcePath": "/media/hilicot/Storage/Gits/Poli/bimchain4site4.0/src/blockchain/contracts/CDE.sol",
    "compiler": {
        "name": "solc",
        "version": "0.5.16+commit.9c3226ce.Emscripten.clang"
    },
    "schemaVersion": "3.4.12",
    "updatedAt": "2023-03-01T13:20:33.857Z",
    "networkType": "ethereum",
    "devdoc": {
        "methods": {}
    },
    "userdoc": {
        "methods": {}
    }
}